S00E00003344465F32312E7372656397
S11300000C942C070C945B070C945B070C945B0713
S11300100C945B070C945B070C945B070C945B07D4
S11300200C945B070C945B070C945B070C945B07C4
S11300300C945B070C945B070C945B070C945B07B4
S11300400C945B070C945B070C945B070C945B07A4
S11300500C945B070C9470080C945B070C945B077E
S11300600C945B070C945B070C945B070C945B0784
S11300700C945B070C945B070C945B070C945B0774
S11300800C945B070C945B070C945B070C945B0764
S11300900C94AC070C94CE070C945B070C945B0790
S11300A00C945B070C945B070C943F3A0C945B072D
S11300B00C945B070C945B070C945B070C94B208DC
S11300C00C945B070C945B070C945B071249124970
S11300D00148C04992471E451E451E451E451E4502
S11300E0C9461E451E451E451E451E451E451E4548
S11300F01E451E451E451E451E451E451E451E45E4
S11301001E451E4535461E451E451E451E451E45BB
S11301101E451E451E451E451E451E451E451E45C3
S11301201E451E451E451E451E451E451E451E45B3
S11301301E451E451E451E451E451E451E451E45A3
S11301401E451E451E451E451E451E451E451E4593
S11301501E451E451E451E451E451E451E451E4583
S11301601E451E451E451E451E451E451E451E4573
S11301701E451E451E451E451E451E451E451E4563
S113018032462E46D545084AD73B3BCE016E84BC49
S1130190BFFDC12F3D6C74319ABD56833DDA3D00DD
S11301A0C77F11BED9E4BB4C3E916BAAAABE000026
S11301B000803F05A84CCDB2D44EB93836A9020C04
S11301C050B9918688083CA6AAAA2ABE00000080DD
S11301D03F007C3C3E5E2B3D3F2F5B5D3B2C2A2247
S11301E05C006F6B00526573656E643A00446F6E19
S11301F065207072696E74696E672066696C650D3E
S11302000A006F6B0D0A004572726F723A204E6FCE
S1130210204C696E65204E756D6265722077697435
S11302206820636865636B73756D2C204C6173740F
S1130230204C696E653A004572726F723A204E6FB7
S113024020436865636B73756D2077697468206CEF
S1130250696E65206E756D6265722C204C617374D5
S1130260204C696E653A004572726F723A20636879
S113027065636B73756D206D69736D617463682C50
S1130280204C617374204C696E653A005365726941
S1130290616C204572726F723A204C696E65204E13
S11302A0756D626572206973206E6F74204C617382
S11302B074204C696E65204E756D6265722B312C0D
S11302C0204C617374204C696E653A00556E6B6EF8
S11302D06F776E20636F6D6D616E643A0D0A005521
S11302E06E6B6E6F776E204D2D434F4D3A00467204
S11302F065652052616D3A20004E6F7420696D70FF
S11303006C656D656E746564207965740053746101
S11303107274696E6720626F6F746C6F616465726A
S11303202E2E2E00205A3A0020593A004164646867
S11303306F6D6520583A007A5F6D696E3A00795F97
S11303406D61783A00785F6D696E3A0020453A0035
S1130350205A3A0020593A00583A003030303030B0
S11303603030302D303030302D303030302D303092
S113037030302D30303030303030303030303000AC
S11303804649524D574152455F4E414D453A2033FF
S113039044466163746F726965732050524F544FC1
S11303A0434F4C5F56455253494F4E3A312E3032EB
S11303B0204D414348494E455F545950453A5052A7
S11303C04F464933444D414B4552204558545255AC
S11303D04445525F434F554E543A310020453A004C
S11303E0205A3A0020593A00583A006F6B200020F6
S11303F0423A00543A00543A0020423A0020403A2B
S1130400006F6B20543A0044656C6574696F6E200C
S11304106661696C65643A0046696C652064656C64
S1130420657465640057726974696E6720746F201F
S113043066696C653A20002E006F70656E206661F7
S1130440696C65642C2046696C653A20004E6F74B3
S1130450205344207072696E74696E67005344209F
S11304607072696E74696E672062797465200066C3
S1130470696C652E6F70656E206661696C656400D9
S113048046696C652073656C65637465640020530C
S1130490697A653A0046696C65206F70656E6564BB
S11304A03A00456E642066696C65206C697374005B
S11304B0426567696E2066696C65206C69737400B7
S11304C0556E6B6E6F776E20472D434F4D3A00206B
S11304D0593A00206F66737365747320583A005458
S11304E06F6F6C2054006572726F7220777269743A
S11304F0696E6720746F2066696C650D0A00446F2D
S11305006E6520736176696E672066696C652E007E
S11305106F6B0D0A00202F2000506C616E20427515
S1130520666665722053697A653A0046726565208D
S113053052616D3A20005374657070657220696E63
S1130540697400506C616E6E657220696E69740026
S11305504C6F61642073657474696E6773005344EF
S113056020537461727400537461727400312E33B9
S11305702E323354202F2032382E31302E32303167
S11305803300537072696E74657200566F6C756DCA
S1130590652073697A6520284D6279746573293AF8
S11305A020000A566F6C756D65207479706520693A
S11305B0732046415400556E6B6E6F776E0D0A00C2
S11305C0534448430D0A005344320D0A0053443146
S11305D00D0A000A4361726420747970653A200040
S11305E04F70656E20726F6F74206661696C65640C
S11305F00D0A00766F6C756D652E696E69742066E0
S113060061696C65640D0A00534420696E69742045
S11306106661696C0D0A0024F4D43050C38E20C284
S1130620A24017828B7011127A910D816CD90AA89D
S113063061E108C7586607615143061E4B5D05C159
S113064045A7041A411104093D9803713931034047
S113065036DB0265339102D4305402802E1D0263CE
S11306602CEE01752AC501B028A001102781018F45
S11306702564012B244B01E0223401AC211F018DA0
S1130680200D01801FFC00841EED00971DDF00B8C3
S11306901CD200E61BC600201BBC00641AB200B2C8
S11306A019A8000A19A0006A189900D117910040EE
S11306B0178B00B516840031167E00B31579003A05
S11306C0157300C7146F0058146A00EE136600888F
S11306D013630025135E00C7125B006C12570015EC
S11306E0125400C111510070114F0021114B00D65A
S11306F01049008D1047004610440002104200C00B
S11307000F4000800F3E00420F3C00060F3B00CB21
S11307100E3800930E37005C0E3500270E3400F3BC
S11307200D3200C10D3100900D3000600D2E0032ED
S11307300D2D00050D2C00D90C2B00AE0C290085C5
S11307400C29005C0C2700350C27000E0C2600E851
S11307500B2400C40B2400A00B23007D0B23005AA0
S11307600B2100390B2100180B2000F80A1F00D9B7
S11307700A1E00BB0A1E009D0A1D00800A1D00639C
S11307800A1C00470A1B002C0A1B00110A1A00F756
S1130790091A00DD091900C4091900AB09190092EE
S11307A00917007B091800630917004C0916003665
S11307B0091600200916000A091500F5081500E0BD
S11307C0081400CC081400B8081400A408140090FD
S11307D00813007D0812006B081300580812004625
S11307E00812003408110023081100120811000136
S11307F0081100F0071000E0071000D0071000C037
S1130800071000B0070F00A107100091070E008326
S1130810070F0074070F0065070E0057070E004905
S1130820070E003B070D002E070E0020070D0013D6
S1130830070D0006070D00F9060C00ED060D00E09B
S1130840060C00D4060C00C8060C00BC060C00B054
S1130850060C00A4060B0099060C008D060B008202
S1130860060B0077060B006C060B0061060A0057A6
S1130870060B004C060A0042060A0038060A002E3F
S1130880060A0024060A001A060A001006090007D0
S1130890060A00FD050900F4050900EB050900E25C
S11308A0050900D9050900D0050900C7050900BEDE
S11308B0050900B5050800AD050800A50509009C5B
S11308C0050800940508008C050800840508007CD0
S11308D0050800740508006C050700650508005D3F
S11308E0050700560508004E0507004705070040A8
S11308F005080038050700310507002A050700230D
S11309000507001C050600160507000F050700086B
S113091005060002050700FB040600F5040700EEC7
S1130920040600E8040600E2040700DB040600D520
S1130930040600CF040600C9040600C3040600BD73
S1130940040600B7040600B1040500AC040600A6C2
S1130950040600A00405009B04060095040500900D
S11309600406008A04050085040500800406007A54
S113097004050075040500700405006B0405006699
S1130980040500610405005C0405005704050052D9
S11309900405004D04050048040500430405003E19
S11309A00404003A04050035040500300404002C56
S11309B004050027040400230405001E0404001A8F
S11309C004040016040500110404000D04040009C5
S11309D00405000404040000040400FC030400F8FB
S11309E0030400F4030400F0030400EC030400E82F
S11309F0030400E4030400E0030400DC030400D85F
S1130A00030400D4030400D0030400CC030400C88E
S1130A10030300C503030024F404D9201BC40C5CA5
S1130A200E9804C4095F0265077101F405F900FB1F
S1130A3004B30048048700C1036900580355000348
S1130A40034500BE023A008402310053022A002901
S1130A5002250004022000E4011C00C8011900AFB3
S1130A600117009801140084011300710110006142
S1130A7001100051010E0043010D0036010B002B43
S1130A80010B0020010B00150109000C01090003F2
S1130A90010800FB000800F3000800EB000700E475
S1130AA0000600DE000600D8000600D2000600CCD6
S1130AB0000500C7000500C2000500BD000400B920
S1130AC0000400B5000400B1000400AD000400A956
S1130AD0000400A5000300A20003009F0004009B83
S1130AE000030098000300950002009300030090A7
S1130AF00003008D0002008B0003008800020086C2
S1130B0000020084000300810002007F0002007DD7
S1130B100002007B000200790002007700010076E9
S1130B200002007400020072000100710002006FF4
S1130B300002006D0001006C0002006A00010069FF
S1130B400002006700010066000100650001006406
S1130B500002006200010061000100600001005F0A
S1130B600002005D0001005C0001005B0001005A0E
S1130B70000100590001005800010057000100560F
S1130B80000100550001005400010053000000530F
S1130B900001005200010051000100500001004F0B
S1130BA00001004E0000004E0001004D0001004C09
S1130BB00001004B0000004B0001004A0001004905
S1130BC00001004800000048000100470001004601
S1130BD000000046000100450000004500010044FB
S1130BE000010043000000430001004200000042F5
S1130BF00001004100000041000100400001003FED
S1130C000000003F0001003E0000003E0001003DE6
S1130C100000003D0001003C0000003C0000003CDE
S1130C200001003B0000003B0001003A0000003AD4
S1130C3000010039000000390001003800000038CC
S1130C4000000038000100370000003700010036C2
S1130C5000000036000000360001003500000035B9
S1130C6000000035000100340000003400000034AE
S1130C7000010033000000330000003300010032A3
S1130C800000003200000032000100310000003199
S1130C90000000310001003000000030000000308E
S1130CA00001002F0000002F0000002F0000002F83
S1130CB00001002E0000002E0000002E0001002D77
S1130CC00000002D0000002D0000002D0001002C6C
S1130CD00000002C0000002C0000002C0001002B60
S1130CE00000002B0000002B0000002B0001002A54
S1130CF00000002A0000002A0000002A0001002948
S1130D00000000290000002900000029000000293B
S1130D10000100280000002800000028000000282E
S1130D200000002800010027000000270000002721
S1130D300000002700000027000100260000002614
S1130D400000002600000026000000260001002507
S1130D5000000025000000250000002500000025FB
S1130D6000000025000100240000002400000024ED
S1130D7000000024000000240001002300000023E0
S1130D8000000023000000230000002300000023D3
S1130D9000000023000100220000002200000022C5
S1130DA000000022000000220000002200010021B7
S1130DB000000021000000210000002100000021AB
S1130DC0000000210000002100010020000000209C
S1130DD0000000200000002000000020000000208F
S1130DE000000020000000200001001F0000001F80
S1130DF00000001F0000001F0000001F0000001F73
S1130E000000001F0001001E0000001E0000001E64
S1130E100000001E0000004E414E494E49545949FD
S1130E204E46CDCCCC3D0AD7233C17B7D13877CC2E
S1130E302B329595E6241FB14F0A00002041000093
S1130E40C84200401C4620BCBE4CCA1B0E5AAEC54C
S1130E509D748110FE10525911241FBECFEFD1E2B0
S1130E60DEBFCDBF14E0A0E0B2E0EAE6F3EC00E0C0
S1130E700BBF02C007900D92A636B107D9F720E147
S1130E80A6E6B4E001C01D92AB3DB207E1F71EE057
S1130E90C8E5DEE000E006C022970109FE010BBFB1
S1130EA00E94A15EC235D10780E00807A9F70E941D
S1130EB0C1080C94B3610C9400004FB7F894A89542
S1130EC028E1886020936000809360004FBF0895FC
S1130ED03FB7F894A89524B7277F24BF28E120932F
S1130EE06000109260003FBF0895FC010994982FA0
S1130EF0969596959695E92FFF27EE0FE90F08959D
S1130F0091E081FD94E080FD990F82FD9295089512
S1130F1090FD869592FD829591FF0895869586951C
S1130F200895E5DFB196ECDF60FD0DC010C0DFDF92
S1130F30B296E6DF60FD07C00AC0D9DFB096982FED
S1130F408081E6DF0895A081A92BA0830895A08164
S1130F509095A923A08308950F930FB70F931F9320
S1130F60EF93FF93009166041091670413950117A2
S1130F7019F40091CE000BC0109367041A95E8E6AB
S1130F80F4E00027E10FF01F0091CE000083FF91F1
S1130F90EF911F910F910FBF0F9118950F930FB7FA
S1130FA00F931F93EF93FF930091680510916905C8
S1130FB0011731F41091C9001F7D1093C9000BC0B3
S1130FC0EAE6F5E01127E00FF11F10811093CE003F
S1130FD0039500936805FF91EF911F910F910FBF47
S1130FE00F911895539A52981092660410926704C0
S1130FF01092680510926905E8ECFF2784839583B5
S113100082E0808386E0828388E9818308950E9458
S11310105308E8ECFF271182108286E08283148251
S113102015825398529808959091C90095FD07C070
S11310309091C80095FF03C08093CE0008959091CD
S113104069059395E09168059E17E1F39A95EAE6A0
S1131050F5E0E90FF11D80839395909369058091E4
S1131060C90080628093C9000895809166049091BC
S11310706704891711F4882708958FEF08959091D4
S11310806604809167048917E1F3E8E6F4E0E90F68
S1131090F11D80819395909366040895809167046F
S11310A08093660408958091690590916805891775
S11310B0E1F78091C80085FFFCCF98E288278A95E4
S11310C0F1F79A95E1F7089516BC8AEF87BD82E09F
S11310D084BD15BA82E080936E0083E085BD0895D7
S11310E08F938FB78F939F9380916A0690916B062D
S11310F0019680936A0690936B0648F480916C067F
S113110090916D06019680936C0690936D068FEF17
S1131110809372069F918F918FBF8F9118958091C4
S113112072068823B1F04FB7F89460916A06709103
S11311306B0680916C0690916D06109272064FBFFB
S113114060936E0670936F06809370069093710699
S1131150089560916E0670916F068091700690916B
S113116071060895009275060F90009274060F9010
S1131170009273060F92009074060F920090750609
S113118018950E94680781E00E94EE100E94864034
S11311900E947F44FDCF2F923F924F925F926F92B5
S11311A07F928F929F92AF92BF92CF92DF92EF92F3
S11311B0FF920F931F93CF93DF93CDB7DEB7C6543F
S11311C0D1090FB6F894DEBF0FBECDBF3C0178AB9A
S11311D06FA74A012BA30DA3E98EA9AABAAACBAA89
S11311E0DCAA422E512C1201220C331C220C331C7B
S11311F09A01220D331D21963FAF2EAF2197D901BD
S1131200CD90DD90ED90FC90FC01E20DF31D20816A
S1131210318142815381C701B6010E9472596FA383
S113122078A789A79AA710E0000F111F000F111FBC
S1131230F401E00FF11F2396FFAFEEAF23978080F8
S11312409180A280B380F301E00FF11F20813181EE
S113125042815381C501B4010E9472596BA77CA7D6
S11312608DA79EA7F98D8F2F90E0880F991F880F67
S1131270991FF301E80FF91F2081318142815381C5
S11312802B8F3C8F4D8F5E8FEFA5F8A9E80FF91FC8
S113129060817181828193810E9471596F8F78A3DB
S11312A089A39AA3AFA5B8A91C968D919D910D9081
S11312B0BC91A02D8DAB9EABAFABB8AFD3011C9648
S11312C02D913D914D915C911F9727962CAF3DAF89
S11312D04EAF5FAF27972601370177FA709477F8FE
S11312E07094A50194015058298B3A8B4B8B5C8BDD
S11312F0EFA5F8A9E20DF31D2FA138A549A55AA51C
S113130060817181828193810E9471596B017C019A
S1131310EFA5F8A9E00FF11F2BA53CA54DA55EA5EF
S113132060817181828193810E9471594B015C01BA
S1131330A7019601C301B2010E943F5D6D8B7E8BB4
S11313408F8B988FA501940169897A898B899C89EF
S11313500E943F5D9B01AC016D897E898F89988DC8
S11313600E9472596D8B7E8B8F8B988FA50194018F
S1131370C301B2010E943F5D4B015C01A7019601CC
S113138069897A898B899C890E943F5D9B01AC01A4
S1131390C501B4010E9471592D893E894F89588D28
S11313A00E94E5596B017C0120E030E0A9010E9414
S11313B04B5A882354F42BED3FE049EC50E4C70129
S11313C0B6010E9472596B017C01A0968FADA09763
S11313D0882351F02BED3FE049EC50E4C701B601FE
S11313E00E9471596B017C016F962CAD3DAD4EADE1
S11313F05FAD6F97C701B6010E943F5D2F8D38A185
S113140049A15AA15F770E947A5C4B015C012FE6E7
S113141032E143E85AE30E944B5A88230CF4E4C1B6
S1131420C501B4010E94285B0E94BF5A7AAF69AF1C
S11314306115710509F4B2C180E090E00E94EB5A95
S11314404B015C019B01AC01C701B6010E94525AD9
S11314506D8B7E8B8F8B988FA50194016F8D78A1F6
S113146089A19AA10E94525A6F8F78A389A39AA343
S113147027962CAD3DAD4EAD5FAD27976DA97EA9E6
S11314808FA998AD0E947159A50194010E94525AE6
S11314906DAB7EAB8FAB98AF20E030E040E05FE314
S11314A06D897E898F89988D0E943F5D2D893E8943
S11314B04F89588D0E943F5D9B01AC0160E070E054
S11314C080E89FE30E9471596BAF7CAF8DAF9EAFF4
S11314D0598D852F90E0FE01A4E05A9FE00DF11D87
S11314E011242B8D3C8D4D8D5E8D2183328343835E
S11314F0548327962CAD3DAD4EAD5FAD27972D8718
S11315003E874F87588B49AD5AAD4230510508F498
S113151045C1912C22242394312CA1E0B0E0AC0FDE
S1131520BD1FFBA1E4E0FE9FA00DB11D1124BCA3CF
S1131530ABA321E030E02C0F3D1F5DA144E0549F9C
S1131540200D311D11243EA32DA3880F991F880F50
S1131550991FA1E0B0E0AC0FBD1FA80FB91FBA8F4F
S1131560A98FBAE09B1619F0EFE09E1202C00E9408
S1131570302BF8E1F9150CF442C02BAD3CAD4DAD68
S11315805EAD69897A898B899C890E943F5D6B0174
S11315907C012D893E894F89588DC301B2010E9477
S11315A03F5DA70196010E947259A62EB72E082FFF
S11315B0192F2BAD3CAD4DAD5EADC301B2010E9400
S11315C03F5D6B017C012D893E894F89588D698966
S11315D07A898B899C890E943F5D9B01AC01C7017C
S11315E0B6010E9471592B013C0193948A2D9B2DC5
S11315F0A02FB12F898B9A8BAB8BBC8B6AC0B101A6
S113160080E090E00E94EB5A2D893E894F89588DE5
S11316100E943F5D4B015C010E944F5A6B017C01AB
S1131620C501B4010E94A25D4B015C012196EEAD9F
S1131630FFAD219780819181A281B3819C01AD018D
S11316405058298B3A8B4B8B5C8B2396AEADBFAD38
S113165023978D919D910D90BC91A02D8B8F9C8F84
S1131660AD8FBE8FA701960169897A898B899C8980
S11316700E943F5D2B013C01A50194016B8D7C8D83
S11316808D8D9E8D0E943F5D9B01AC01C301B20113
S11316900E9472592B013C0129893A894B895C8942
S11316A0C501B4010E943F5D4B015C012B8D3C8D53
S11316B04D8D5E8DC701B6010E943F5D9B01AC015B
S11316C0C501B4010E947159698B7A8B8B8B9C8BF9
S11316D0912CA30192016FA178A589A59AA50E94D6
S11316E07259EBA1FCA1608371838283938329895E
S11316F03A894B895C896BA57CA58DA59EA50E9422
S11317007259ADA1BEA16D937D938D939C93139754
S11317102F8D38A149A15AA1E98DFA8D608171817B
S1131720828193810E947259A98DBA8D6D937D93A4
S11317308D939C9313972D853E854F8558896DA96C
S11317407EA98FA998AD0E9472595B016C016D87C7
S11317507E878F87988BE984FA840B851C852D817D
S11317603E814F81588569817A818B819C81BCA996
S1131770BF93EBA9EF93FAA9FF93A9A9AF930E9492
S1131780032FBFEF2B1A3B0A0F900F900F900F906F
S1131790E9ADFAAD2E163F0609F0E3CEAFA5B8A920
S11317A01C96AD90BD90CD90DC901F971896ED904F
S11317B0FD900D911C911B9714962D913D914D9187
S11317C05C9117976D917D918D919C91BCA9BF936C
S11317D0EBA9EF93FAA9FF93A9A9AF930E94032F52
S11317E00F900F900F900F90CA5BDF4F0FB6F894D5
S11317F0DEBF0FBECDBFDF91CF911F910F91FF9040
S1131800EF90DF90CF90BF90AF909F908F907F909C
S11318106F905F904F903F902F900895862F0E9475
S113182014080895862F0E94140808954F925F9219
S11318306F927F928F929F92AF92BF92CF92DF92DC
S1131840EF92FF920F931F93CF93DF93CDB7DEB741
S1131850A0970FB6F894DEBF0FBECDBF8C01CB01AD
S1131860BA01611571058105910509F457C0422E2D
S1131870512C612C712C9E012F5F3F4F7901812CDB
S1131880912C54013FEF831A930AA30AB30AA301CC
S113189092010E94295EF70161937F01B901CA0197
S11318A0611571058105910569F775016401F1E020
S11318B0CF1AD108E108F1080FC0605DC8010E9489
S11318C0120CD701C6010197A109B109CD28CE2870
S11318D0CF2869F06C017D01E1E0F0E0EC0FFD1F21
S11318E0EC0DFD1D60816A3040F3695CE7CFA09682
S11318F00FB6F894DEBF0FBECDBFDF91CF911F911D
S11319000F91FF90EF90DF90CF90BF90AF909F909A
S11319108F907F906F905F904F90089560E3C8011F
S1131920A0960FB6F894DEBF0FBECDBFDF91CF9166
S11319301F910F91FF90EF90DF90CF90BF90AF90E9
S11319409F908F907F906F905F904F900C94120CAB
S11319502AE00E94160C0895CF92DF92EF92FF9234
S1131960CF93DF93EC016A017B0177FD0CC02AE081
S1131970B701A601CE01DF91CF91FF90EF90DF90E8
S1131980CF900C94160C6DE20E94120CF094E0942B
S1131990D094C094C11CD11CE11CF11CE8CFAB0154
S11319A0662757FD6095762F0E94AC0C08958F92A0
S11319B09F92AF92BF92CF92DF92EF92FF921F93CA
S11319C0CF93DF93EC016A017B01B22E20E030E07B
S11319D0A901C701B6010E944B5A87FD5EC0BB2016
S11319E009F464C010E060E070E080E09FE320E070
S11319F030E040E251E40E94525A1F5F1B11F7CFBE
S1131A009B01AC01C701B6010E9472596B017C01B4
S1131A100E94BF5A4B015C010E94EB5A9B01AC012E
S1131A20C701B6010E9471596B017C01B501A40183
S1131A30CE010E94A80C6EE2CE010E940E0C20E0A2
S1131A4030E040E251E4C701B6010E943F5D6B0102
S1131A507C010E94BA5A4B015C01CE010E94CF0C5A
S1131A60B401882777FD8095982F0E94ED5A9B0139
S1131A70AC01C701B6010E9471596B017C01115080
S1131A80F1F6DF91CF911F91FF90EF90DF90CF900F
S1131A90BF90AF909F908F9008956DE2CE010E9409
S1131AA0120CF7FAF094F7F8F09499CF20E030E0B4
S1131AB040E05FE3C701B6010E9472590E94BF5A19
S1131AC0AB01BC01CE01DF91CF911F91FF90EF904C
S1131AD0DF90CF90BF90AF909F908F900C94A80C04
S1131AE02115310529F02A30310529F00C94160C02
S1131AF0642F0C94120C0C94AC0C0F931F93CF9383
S1131B00DF938C01EB016881662339F02196C801CB
S1131B100E940E0C69916111FACFDF91CF911F9150
S1131B200F9108950F931F93CF93DF93EC018B01D3
S1131B300F5F1F4FAB01662757FD6095762F6BBF74
S1131B40FA016791662379F0CE010E940E0CA80178
S1131B50662757FD6095762F6BBFFA0167910F5F7B
S1131B601F4F6111F1CFDF91CF911F910F91089514
S1131B70CF92DF92EF92FF92C0900007D0900107BE
S1131B80E12CF12C60E070EB8FEF9FEFA701960141
S1131B900E944B5E309303022093020260E070E5E2
S1131BA080E090E0A70196010E944B5E3093010211
S1131BB020930002FF90EF90DF90CF900895AF92B2
S1131BC0BF92DF92EF92FF920F931F93CF93DF9315
S1131BD08B015A01423051050CF44EC0EB012E81A9
S1131BE03F8128173907ECF5DB01149641E050E0FA
S1131BF0E1E0F0E0DD24D3940FC04D2D50E0D80196
S1131C00D4E0DD9EA00DB11D112412962D913C91BE
S1131C101397281739073CF54150504C440F551F72
S1131C20440F551F400F511FEA016A817B81E880F0
S1131C30F980AC01461B570B0D90BC91A02DAE1939
S1131C40BF094A9FC0014B9F900D5A9F900D1124CC
S1131C50A901461B570BBA010E94155E6E0D7F1D2C
S1131C6011C0DD24D394D394ED2DF0E0EA15FB05E7
S1131C7024F260E070E006C0E1E0F0E0DD24D394FB
S1131C8060E070E0EA15FB0569F48D2D90E0815069
S1131C90904C880F991F880F991FF801E80FF91FBE
S1131CA0608171818FEF93E0861B970BDF91CF9159
S1131CB01F910F91FF90EF90DF90BF90AF90089528
S1131CC0AF92BF92DF92EF92FF920F931F93CF9345
S1131CD0DF938B015A014FEF53E0481B590B22E06D
S1131CE0A216B1040CF44EC0EB012C813D814217C5
S1131CF05307ECF5DB01149681E090E0E1E0F0E0BD
S1131D00DD24D3940EC08D2D90E0D801D4E0DD9E67
S1131D10A00DB11D11242D913C9111974217530729
S1131D2044F58150904C880F991F880F991F800F9C
S1131D30911FEC0168817981EA80FB80461B570B77
S1131D4012960D90BC91A02DAE19BF094A9FC001F7
S1131D504B9F900D5A9F900D1124A901461B570BC0
S1131D60BA010E94155EC701860F971F11C0DD24BA
S1131D70D394D394ED2DF0E0EA15FB0524F280E032
S1131D8090E006C0E1E0F0E0DD24D39480E090E050
S1131D90EA15FB0569F48D2D90E08150904C880F75
S1131DA0991F880F991FF801E80FF91F8281938109
S1131DB0DF91CF911F910F91FF90EF90DF90BF9033
S1131DC0AF9008958F929F92AF92BF92EF92FF923D
S1131DD00F931F93CF93DF93EC011C860A811B8121
S1131DE08E819F81F801E81BF90B288539857C01D8
S1131DF0E21AF30A998788872091FE063091FF063C
S1131E00DF010E94875E4B015C0199232CF42FEFC4
S1131E10820E911CA11CB11C892C9A2CAB2CBB24C6
S1131E20A7FCBA942BEB30E0D8010E94875E472FC1
S1131E30582F692F772767FD7A954B5151094F3FEA
S1131E40510514F04FEF50E0840E951EEE31F1056C
S1131E506CF5AA85BB85AE0FBF1F2091000230919F
S1131E6001028091020290910302A817B9072CF095
S1131E702A173B071CF4D90101C0DC01BB87AA87E0
S1131E8020910007309101070E94875E8B019C011D
S1131E90992324F401501F4F2F4F3F4FBB2737FD89
S1131EA0BA95A32F922F812F880E991ECF01FF235D
S1131EB024F4882799278E1B9F0B8235910544F0C3
S1131EC061E570E00E94155ECB01E5E0F0E002C040
S1131ED0E1E0F0E08A30910534F069E070E00E94BE
S1131EE0155ECB01329604970CF0319620910207CF
S1131EF030910307D7010E94875E3E2F2227442793
S1131F0037FD4095542F0E944B5E280D391D2F3FFD
S1131F10310519F014F02FEF30E0332314F420E0EE
S1131F2030E02C87DF91CF911F910F91FF90EF90BC
S1131F30BF90AF909F908F9008950F931F93CF936E
S1131F40DF93EB010E948F0800917F0610918006B9
S1131F502091810630918206DC01CB01801B910B1C
S1131F60A20BB30B843F9140A105B10508F4C4C092
S1131F700E948F0860937F06709380068093810689
S1131F809093820610927C00EAE7F0E080818064FE
S1131F908083808186FDFDCF209178003091790087
S1131FA08FEF93E0821B930B909395068093940696
S1131FB044E250E06EE273E00E94600E9093970654
S1131FC08093960680E996E00E94E20E88819981CA
S1131FD0892B29F480919C0680939A0014C069E1AE
S1131FE073E086E796E00E947D0D8DE00E94140860
S1131FF08AE00E941408109293061092920680912F
S11320009C0680939A000E948F0800917B06109191
S11320107C0620917D0630917E06DC01CB01801B7D
S1132020910BA20BB30B88389341A105B10508F4B9
S113203063C00E948F0860937B0670937C06809334
S11320407D0690937E0682E080937C00EAE7F0E0D0
S1132050808180648083808186FDFDCF80917800BB
S1132060909179000FEF13E0081B190B1093880669
S11320700093870644E250E06EE273E0C8010E94D8
S1132080600E90938A0680938906809179069091D8
S11320907A060817190744F41092840610928306EE
S11320A010928606109285068091770690917806A4
S11320B08017910744F410928406109283061092BC
S11320C086061092850688819981892B89F48091EE
S11320D0830690918406081719072CF48FEF90E07B
S11320E08093980009C080E090E08093980004C039
S11320F080E090E080939800DF91CF911F910F9141
S1132100089544E250E06EE273E085E090E00E94BE
S1132110DF0D90937A068093790644E250E06EE2F4
S113212073E083E191E00E94DF0D90937806809341
S11321307706089512B88FED81B988E185B987EEE5
S113214084B98FEF88B99FE397B98BB99BEF9AB99C
S113215093EC9EB92CE32DB99EB998EF91BB10BABC
S113216084BB13BA87E080937E0087E880937A006B
S113217010927B0016BC8AEF87BD82E084BD15BA3D
S113218080936E0083E085BD80E090E080938800BA
S113219080938A0081EA809380008BE080938100A1
S11321A080E090E080939A0080939C008093980054
S11321B089EA809390008BE0809391001092A000B4
S11321C08AE08093A1001092A5001092A40080EDF3
S11321D097E09093A9008093A8000895882319F0AC
S11321E0E4E8F2E002C0E4E0F2E080E8AAEAB6E063
S11321F001900D928A95E1F7089508958F929F9228
S1132200AF92BF92CF92DF92EF92FF9220918C0215
S113221030918D0240918E0250918F0260E070E007
S11322208AEF93E40E94525A6B017C012091880248
S11322303091890240918A0250918B0260E070E0F3
S11322408AEF93E40E94525AA70196010E943B5BD5
S11322504B015C016093CC027093CD028093CE025B
S11322609093CF022091900230919102409192027A
S11322705091930260E070E08AEF93E40E94525A16
S11322806B017C016093D0027093D1028093D202DF
S11322909093D3022091940230919502409196023A
S11322A05091970260E070E08AEF93E40E94525AE2
S11322B06093D4027093D5028093D6029093D70290
S11322C080924C0290924D02A0924E02B0924F0224
S11322D0C0925002D0925102E0925202F092530204
S11322E06093540270935502809356029093570260
S11322F0FF90EF90DF90CF90BF90AF909F908F9022
S113230008958EBD0DB407FEFDCF08958FEF0E9492
S113231081118EB50895179A089517980895CF934B
S1132320DF93EC018D81882309F18FEF8EBD8E81BF
S11323309F819C012F5F3F4F3F832E8381309240CA
S113234070F44FEF0DB407FEFDCF4EBD2E813F81DB
S1132350C90101969F838E832130324098F30DB4D6
S113236007FEFDCFCE010E948B111D82DF91CF911C
S11323700895673028F026E1FC01248380E0089565
S113238060FD02C0663021F48DB58E7F8DBD03C023
S11323908DB581608DBD8CB58C7F8CBD9CB562FF85
S11323A002C082E001C080E066956170692B682BF1
S11323B06CBD81E008950F931F93CF93DF93EB01DE
S11323C00E948F088B010E9486118F3F41F00E946A
S11323D08F08601B710B6C177D07A8F302C081E0A6
S11323E001C080E0DF91CF911F910F910895BF92BA
S11323F0CF92DF92EF92FF920F931F93CF93DF93CD
S11324008C01B62E69017A010E948F11C8010E94C5
S11324108D116CE271E0C8010E94DB118B2D806488
S11324200E948111C8E1D0E0D701C6010C2E04C07E
S1132430B695A795979587950A94D2F70E9481112E
S11324402897C83F8FEFD80779F7BB2029F0E8E039
S1132450BE1621F08FEF03C085E901C087E80E9412
S11324608111C0E00E948611F8018187882324F439
S1132470CF3F11F0CF5FF6CFDF91CF911F910F9136
S1132480FF90EF90DF90CF90BF900895AF92BF92EE
S1132490CF92DF92EF92FF920F931F93CF93DF932C
S11324A0EC01B62E1A8618861D821C820E948F08A3
S11324B08B01209A0F9ACE010E948B112398229AA5
S11324C0219A83E58CBD8DB58E7F8DBD0F2EFAE0EC
S11324D0AF2EF02D8FEF0E948111AA94D9F70AC074
S11324E00E948F08601B710B613D774018F081E0FA
S11324F08C836DC020E030E0A90160E0CE010E9431
S1132500F7118987813061F72AEA31E040E050E031
S113251068E0CE010E94F71182FF03C081E08A8740
S11325200FC06894FF24F2F80E9486118987FA94F8
S1132530D9F78A3A19F082E08C8349C082E08A870D
S11325408A85823031F4C12CD12C76016894F6F856
S11325500EC0C12CD12C76010AC00E948F08601BCA
S1132560710B613D774018F088E08C8330C020E027
S113257030E0A90167E3CE010E94F711A70196019B
S113258069E2CE010E94F71189878111E6CF8A851D
S11325908230A1F420E030E0A9016AE3CE010E9478
S11325A0F711882319F086E08C8311C00E948611EC
S11325B0807C803C81F483E08A870DC0CE010E9438
S11325C08B116B2DCE010E94B911A82E0BC0CE0128
S11325D00E948B1107C00E9486110E9486110E94DE
S11325E08611ECCF8A2DDF91CF911F910F91FF902F
S11325F0EF90DF90CF90BF90AF9008950F931F930B
S1132600CF93DF93EC010E948F088B010AC00E94D4
S11326108F08601B710B6D32714018F08FE08C8352
S113262009C00E94861189878F3F89F38E3F39F054
S11326308DE08C83CE010E948B1180E001C081E08B
S1132640DF91CF911F910F910895CF92DF92EF9276
S1132650FF920F931F93CF93DF93EC016901011550
S1132660110509F483C0C801820F931F8130924081
S113267008F077C08D81882371F088819981AA81BF
S1132680BB8184179507A607B70729F48E819F811C
S1132690C816D90628F5488359836A837B838A85BB
S11326A0833049F0032E39E0440F551F661F771F0E
S11326B03A95D1F7302D9A01AB0161E1CE010E9428
S11326C0F711882319F083E08C834BC0CE010E945C
S11326D0FE12882309F445C01F821E8281E08D8387
S11326E08FEF8EBD8E819F818C159D0568F42FEF31
S11326F00DB407FEFDCF2EBD8E819F8101969F8371
S11327008E838C159D05A0F3980121503109211564
S1132710310571F0F70180E090E05FEF0DB407FE42
S1132720FDCF4EB541935EBD019682179307B0F37A
S11327300DB407FEFDCF8EB5F701E20FF31F8083C2
S11327408E819F81080F191F1F830E83888588231C
S113275019F00115124060F0CE010E948F1181E042
S113276008C0CE010E948B1180E003C081E001C04B
S113277081E0DF91CF911F910F91FF90EF90DF9057
S1132780CF900895EF92FF920F931F93790100E089
S113279012E020E030E00E9425131F910F91FF907A
S11327A0EF900895CF93DF93EC016EBD9A012F5FF4
S11327B03F4F4F5F5D4F0DB407FEFDCFF901D901C7
S11327C011978C918EBD0DB407FEFDCF80818EBD17
S11327D02E5F3F4F2417350771F70DB407FEFDCF69
S11327E08FEF0E9481118FEF0E9481110E94861148
S11327F089878F71853039F081E18C83CE010E9405
S11328008B1180E001C081E0DF91CF9108950F9397
S11328101F93CF93DF93EC018901411551056105A5
S1132820710519F482E18C833DC08A85833049F0B7
S1132830032E39E0440F551F661F771F3A95D1F7D1
S1132840302D9A01AB0168E1CE010E94F711882373
S113285019F084E08C8326C0A8016EEFCE010E949B
S1132860D2138823F9F068E572E0CE010E94DB11EF
S1132870811103C085E18C8315C020E030E0A901FB
S11328806DE0CE010E94F711811104C00E948611EF
S1132890882319F084E18C8305C0CE010E948B113A
S11328A081E004C0CE010E948B1180E0DF91CF91C2
S11328B01F910F910895CF93DF93EC019C012D5F3D
S11328C03F4F41E050E060E070E0888D998D0E94B8
S11328D054218823A9F04C895D896E897F89452B11
S11328E0462B472B79F44B815C816D817E814C8B27
S11328F05D8B6E8B7F8B89818068898381E003C0C7
S113290080E001C081E0DF91CF910895CF92DF9202
S1132910EF92FF921F93CF93DF93EC010E945B141D
S1132920882309F44BC0E88DF98DCB80DC80ED80E1
S1132930FE8082E0C81AD108E108F108058404C0C9
S1132940CC0CDD1CEE1CFF1C0A94D2F786859785FF
S1132950A089B189C80ED91EEA1EFB1E1481112359
S113296089F081E0C81AD108E108F108C701B6016D
S1132970610F711D811D911D0E94731F882301F138
S11329801150A1F7E88DF98D80E092E0A0E0B0E06D
S1132990058404C0880F991FAA1FBB1F0A94D2F78D
S11329A0488959896A897B89840F951FA61FB71F97
S11329B0888B998BAA8BBB8B81E003C080E001C01C
S11329C080E0DF91CF911F91FF90EF90DF90CF9047
S11329D00895CF93DF93EC01462F6B857C858D851D
S11329E09E850E94361F882341F08F8520E2829FB6
S11329F0C00111248D5C984F02C080E090E0DF910B
S1132A00CF9108951F93CF93DF93382FFB018BE071
S1132A1020E221938150E9F7A32FB92F50E0C7E0BA
S1132A2018E0DAE022ED31E021C04E3211F0F90174
S1132A3008C0CA3021F1512FCD2F18C03196491743
S1132A40F1F094919111FACFC517C8F09FED940F4E
S1132A509E35A8F491E0950FFB01E50FF11D5FE9A8
S1132A60540F5A3108F440524083592F4D9141116B
S1132A70DCCF81E0FB019081903209F480E0DF91AA
S1132A80CF911F9108950F931F93CF93DF93EC0180
S1132A908B018A8181114EC0FB018789803119F530
S1132AA082E08A831C8A1D8A1E8A1F8A408D518D6A
S1132AB060E070E0440F551F661F771F440F551FD9
S1132AC0661F771F440F551F661F771F440F551F3E
S1132AD0661F771F440F551F661F771F488B598B3E
S1132AE06A8B7B8B15C0803239F583E08A83FB01C6
S1132AF0428D538D648D758D4C8B5D8B6E8B7F8B6E
S1132B009E01205F3F4FC8010E9425208823B1F019
S1132B10198F088F81E089831B821C821D821E828B
S1132B201F82188619861A861B861C861D861E8699
S1132B301F8605C080E003C080E001C080E0DF9113
S1132B40CF911F910F910895BF92CF92DF92EF9290
S1132B50FF920F931F93CF93DF937C01B62EEC016A
S1132B60C12CD12C8E018881803261F088E0C8129A
S1132B7004C08EE20E941408D394F80180810E945C
S1132B801408D394C3942196FBE0CF12EBCFF70142
S1132B9083858871803121F48FE20E941408D394D4
S1132BA0DB1430F480E20E941408D394DB14D0F3D5
S1132BB0DF91CF911F910F91FF90EF90DF90CF9015
S1132BC0BF900895CF93DF9300D01F92CDB7DEB7A7
S1132BD09DEC899F912D112496959695969520E3C9
S1132BE0290F2983990F292F220F220F920F891B56
S1132BF0805D8A831B82BE016F5F7F4F86E796E00C
S1132C000E947D0D0F900F900F90DF91CF9108954A
S1132C10CF93DF93EC01AC01452F552746954454DF
S1132C20584F60E070E02AE086E796E00E94160CB8
S1132C308DE20E941408CE0196958795929582950F
S1132C408F7089279F7089278F700E94E2158DE20B
S1132C500E9414088C2F8F710E94E215DF91CF918E
S1132C600895CF93DF93EC018D2F869586958695F5
S1132C700E94E2158AE30E941408CE019695879576
S1132C80929582958F7089279F7089278F730E94F0
S1132C90E2158AE30E9414088C2F8F71880F0E941A
S1132CA0E215DF91CF9108952F923F924F925F9258
S1132CB06F927F928F929F92AF92BF92CF92DF9248
S1132CC0EF92FF920F931F93CF93DF9300D000D026
S1132CD000D0CDB7DEB79E838D833B015A834983F1
S1132CE0DC0112968C911297882309F411C1119674
S1132CF08C91119780FF0FC150964D915D916D910C
S1132D007C91539717968D919D910D90BC91A02D18
S1132D10E981FA814F01A12CB12C8A019B01081B86
S1132D20190B2A0B3B0B081519052A053B0528F43A
S1132D308A01081B190B1A83098329813A812115F9
S1132D40310509F4E2C059018D819E8103969C836B
S1132D508B83412C6894552451F822242394312CDC
S1132D60ED81FE8187819085A185B2854C01F1E0DA
S1132D709F22ED81FE8122812230D9F4AC01BD0174
S1132D80032E39E076956795579547953A95D1F78F
S1132D90302D008CF18DE02D828D938DA48DB58D19
S1132DA08A019B01080F191F2A1F3B1FC901B80183
S1132DB059C0ED81FE81E08CF18CF701D480DA9466
S1132DC08C019D010F2EF9E03695279517950795EF
S1132DD0FA95D1F7F02DD0228114910409F5D11080
S1132DE01FC0892B8A2B8B2B59F4ED81FE8184899A
S1132DF09589A689B78983839483A583B68310C0F4
S1132E00AD81BE8113964D915D916D917C91169724
S1132E102B813C81C7010E949A1F882309F47EC03C
S1132E20ED81FE81208D318D83819481A581B681D0
S1132E300297A109B109F901058404C0880F991FFB
S1132E40AA1FBB1F0A94D2F70685178520893189EA
S1132E50800F911FA21FB31FBC01CD016D0D711D09
S1132E60811D911D92012819390965012A153B0517
S1132E7008F46901AD81BE8111962C9126FD05C02F
S1132E80C114B2E0DB0609F060C0009104031091A4
S1132E900503209106033091070360177107820729
S1132EA0930709F044C051C06C0C7D1C1CC0B401D4
S1132EB06D5C784F9B012C0D3D1D6217730799F0D3
S1132EC0FB01D301C90141914D93E817F907D9F7E3
S1132ED04B01EFEF8E1A9E0AC10188199909280F38
S1132EE0391F620E731EED81FE8187819085A18555
S1132EF0B2858C0D9D1DA11DB11D87839087A1876F
S1132F00B287AC18BD0809F02BCF89819A8123C000
S1132F108FEF9FEF20C08FEF9FEF1DC08FEF9FEFCC
S1132F201AC08FEF9FEF17C08FEF9FEF14C073018C
S1132F3086019401AB01BC01809131079091320765
S1132F400E9425138111B0CFECCF40E00E94361FC0
S1132F508111ADCFE9CF26960FB6F894DEBF0FBE30
S1132F60CDBFDF91CF911F910F91FF90EF90DF9034
S1132F70CF90BF90AF909F908F907F906F905F9015
S1132F804F903F902F900895CF92DF92EF92FF924F
S1132F900F931F93CF93DF931F92CDB7DEB78C01AE
S1132FA0FC018281823060F1C780D084E184F284A4
S1132FB041E050E0BE016F5F7F4FC8010E9454168C
S1132FC0019709F5F80187819085A185B2854F960F
S1132FD0A11DB11D87839087A187B287D701C60140
S1132FE0689414F8B695A795979587951694D1F794
S1132FF08F70F0E28F9FC00111248D5C984F05C043
S113300080E090E002C080E090E00F90DF91CF91EB
S11330101F910F91FF90EF90DF90CF9008954F9202
S11330205F926F927F928F929F92AF92BF92CF9254
S1133030DF92EF92FF920F931F93CF93DF93EC01F4
S11330404A015B012A81222309F481C08889998974
S1133050AA89BB8984179507A607B70708F479C01E
S1133060223031F44F83588769877A8781E074C0AE
S1133070411551056105710551F41B821C821D82A5
S11330801E821F82188619861A8681E065C08F8188
S11330909885A985BA85E88DF98DC584D12C29E058
S11330A0C20ED11CAC01BD01415051096109710925
S11330B00C2C04C076956795579547950A94D2F7DA
S11330C095018401015011092109310928013901AF
S11330D004C07694679457944794CA94D2F77301C2
S11330E06201441655066606770620F0892B8A2B62
S11330F08B2B49F48C899D89AE89BF898B839C83F2
S1133100AD83BE8316C0C41AD50AE60AF70A11C0F5
S11331104B815C816D817E819801888D998D0E949F
S11331209A1F21E0C21AD108E108F108811104C0F4
S113313012C08E010D5F1F4FC114D104E104F104CC
S113314039F78F829886A986BA8681E005C080E027
S113315003C080E001C080E0DF91CF911F910F9107
S1133160FF90EF90DF90CF90BF90AF909F908F90A3
S11331707F906F905F904F9008950F931F93CF931C
S1133180DF93EC018A818823C1F18981882394F536
S113319061E0CE010E94E9148C01009781F18A81DB
S11331A0823048F488899989AA89BB89F801848F77
S11331B0958FA68FB78F8C899D89F801938F828F05
S11331C04C895D896E897F89758B648BE0912A07B0
S11331D0F0912B07309759F0B8016A5E7F4FC80110
S11331E048960995F801808D918D938B828B898106
S11331F08F7789830E94F71E03C080E001C080E0BE
S1133200DF91CF911F910F910895CF93DF93EC013C
S11332100E94BD18882319F01A8281E001C080E061
S1133220DF91CF9108954F925F926F927F92AF9208
S1133230BF92CF92DF92EF92FF920F931F93CF939F
S1133240DF9300D000D0CDB7DEB75C016A017B010B
S1133250DC0112968C911297813009F09DC0119671
S11332608C91119781FF9AC050968D919D910D90EC
S1133270BC91A02D84179507A607B70708F490C042
S1133280892B8A2B8B2B09F48DC0F5014780508440
S113329061847284C5010E940F18882309F484C0D4
S11332A0C114D104E104F104B1F4D50154964D9153
S11332B05D916D917C91579758968D919C915997FA
S11332C00E947722882309F471C0F501148A158AB3
S11332D0168A178A42C0D50113964D915D916D915E
S11332E07C9116979E012F5F3F4F58968D919C912C
S11332F059970E949A1F882371F149815A816B81E1
S11333007C81D5015896ED91FC915997878980313C
S113331029F408EF1FEF20E030E004C008EF1FEFAE
S11333202FEF3FE04017510762077307B0F4CF0156
S11333300E947722882379F0F501438154816581C5
S113334076810FEF1FEF2FEF3FE0808D918D0E946C
S1133350AB20811102C080E02CC0D5015096CD92E3
S1133360DD92ED92FC92539711968C91119780689F
S113337011968C93C5010E94BD188823C9F0B7012A
S1133380A6014C145D046E047F0410F4B301A20181
S1133390C5010E940F180DC080E00BC080E009C079
S11333A080E007C081E005C080E003C080E001C088
S11333B080E00F900F900F900F90DF91CF911F91AD
S11333C00F91FF90EF90DF90CF90BF90AF907F90E0
S11333D06F905F904F900895FF920F931F93CF9338
S11333E0DF93EC01F42E80E2689FF0011124ED5C80
S11333F0F84F8385817121F0842F827409F053C0C2
S11334006F878091040390910503A0910603B09106
S113341007038B879C87AD87BE870489158920E0C5
S113342030E09801112700270C8B1D8B2E8B3F8BCE
S1133430428D538D60E070E0402B512B622B732B37
S11334404C8B5D8B6E8B7F8B8385887159F4848D57
S1133450958DA68DB78D888B998BAA8BBB8B81E0BC
S11334608A830DC0803109F59E01205F3F4F888D0E
S1133470998D0E9425208823D1F084E08A838F2DA2
S11334808F7089831B821C821D821E821F82188674
S113349019861A86F6FE0DC040E050E0BA01CE014E
S11334A00E94131907C080E005C080E003C080E0DB
S11334B001C081E0DF91CF911F910F91FF9008959A
S11334C09F92AF92BF92CF92DF92EF92FF920F93AF
S11334D01F93CF93DF93CDB7DEB72B970FB6F89436
S11334E0DEBF0FBECDBF6C017B01922EFC01828139
S11334F08111C1C0BE016F5F7F4FCA010E940215D6
S1133500882309F4BAC0F701808D918DF601918F5B
S1133510808FF70113821482158216821782108617
S113352011861286B12CAA24A3943FC0689414F87F
S113353036952795179507951694D1F70F70C701FF
S11335400E94C417009709F49AC0FC012081222329
S113355011F0253EB1F4B1100FC0F6010787409178
S11335600403509105036091060370910703438798
S1133570548765877687BA2CFC018081811115C038
S113358023C04BE050E0BC01CE0101960E947E6155
S1133590892B59F4892D8073803309F472C0492D25
S11335A0602FC6010E94EC1977C0F70107811085CE
S11335B02185328580899189A289B38908171907E1
S11335C02A073B0708F4B2CF892D8271823109F0B2
S11335D05AC0BB2041F061E0C6010E94E9148C018D
S11335E0009781F452C0F7018281823009F44FC000
S11335F0C7010E948614882309F44BC0F60117867C
S113360003E317E080E2F80111928A95E9F78BE071
S1133610FE013196D80101900D928A95E1F7E0916F
S11336202A07F0912B07309739F0B801625F7F4F7A
S1133630C8014096099509C081E298E2F801918B8E
S1133640808B80E098E097878687F801808991894C
S1133650938B828B918F808F86859785978B868BB2
S11336600E94F71E8823B9F0492DF6016785C6012B
S11336700E94EC1911C080E00FC080E00DC080E012
S11336800BC080E009C080E007C080E005C080E096
S113369003C080E001C080E02B960FB6F894DEBF33
S11336A00FBECDBFDF91CF911F910F91FF90EF908F
S11336B0DF90CF90BF90AF909F900895DF92EF92EC
S11336C0FF920F931F93CF93DF93EC018B017A0149
S11336D0D22E8A8181112CC0822F8073803351F1C4
S11336E0FB01808D918D998F888F440F551F4295D2
S11336F05295507F5427407F542760E070E0C80102
S11337000E940F188823C1F0C8010E94C4170097B3
S1133710A9F0FC018081882399F0853E99F08E32CE
S113372099F06E2D6F704D2DCE010E94EC190DC0D5
S113373080E00BC080E009C080E007C080E005C0E5
S113374080E003C080E001C080E0DF91CF911F9151
S11337500F91FF90EF90DF9008952F923F924F9238
S11337605F926F927F928F929F92AF92BF92CF920D
S1133770DF92EF92FF920F931F93CF93DF93CDB716
S1133780DEB76B970FB6F894DEBF0FBECDBF6C01EA
S1133790B62EFC01138214821582168217821086BB
S11337A011861286E42EF12CF62FF3708F2E862FBD
S11337B08170982EE62FE470AE2E4E5F4B8FF62F5D
S11337C0F2707F2E0F2EFEE06F2EF02D5DC0F801FB
S11337D08081882309F48AC0853E09F455C08E325D
S11337E009F452C0838583FD4FC01E141F0464F482
S11337F0412C80E20E9414084394842D992787FD6C
S113380090958E159F05ACF3882011F0662D01C0AC
S113381060E0C8010E94A415992069F0F801808D28
S1133820918D0E94081680E20E941408F80186898E
S113383097890E943116F80183858871803111F0CF
S113384071102AC08DE00E9414088AE00E941408B6
S1133850AA20D1F0F801838588718031A9F42AC0A7
S11338604B8D6B2DCE0101960E94AD1BA101440F1F
S1133870551F42955295507F5427407F542760E04E
S113388070E0C6010E940F18C6010E94C4178C0183
S1133890009709F09CCF2AC080E20E941408F80126
S11338A0448D558D668D778D2AE086E796E00E94DB
S11338B0160CC8CFF60147815085618572851A01BF
S11338C02B01689414F856944794379427941694CB
S11338D0D1F71B82A1014150510921E0B601CE016B
S11338E001960E945E1B882309F2BACF6B960FB62D
S11338F0F894DEBF0FBECDBFDF91CF911F910F9122
S1133900FF90EF90DF90CF90BF90AF909F908F90FB
S11339107F906F905F904F903F902F900895CF933A
S1133920DF93EC0140E050E0BA010E9413198823B0
S113393069F061E0CE010E94E914009749F025EE98
S1133940FC0120831A820E94F71E03C080E001C09C
S113395080E0DF91CF910895CF93DF93CDB7DEB7A9
S11339606A970FB6F894DEBF0FBECDBFAB011B82C2
S113397022E0BC01CE0101960E94601A882329F03E
S1133980CE0101960E948F1C01C080E06A960FB69A
S1133990F894DEBF0FBECDBFDF91CF9108952F9273
S11339A03F924F925F926F927F928F929F92AF92CB
S11339B0BF92CF92DF92EF92FF920F931F93CF9318
S11339C0DF93CDB7DEB728970FB6F894DEBF0FBEEE
S11339D0CDBF8C014B015E834D83DC0112968C912B
S11339E01297813009F080C111968C91119781FF53
S11339F07BC182FF17C050964D915D916D917C9172
S1133A00539717968D919D910D90BC91A02D84177D
S1133A109507A607B70731F0C8010E940F1888233D
S1133A2009F462C1ED81FE81309709F42EC16F0162
S1133A30212C6894332431F8F80187819085A1857D
S1133A40B285008CF18DE02DF887EF83AC01BD01C8
S1133A50032E39E076956795579547953A95D1F7B2
S1133A60302D2481215024235C01F1E0BF22211157
S1133A7057C0A114B10409F06AC1D80113964D913D
S1133A805D916D917C911697411551056105710504
S1133A90B1F454968D919D910D90BC91A02D0097F9
S1133AA0A105B10531F4C8010E945B14811122C142
S1133AB01BC1F80183839483A583B6831BC19E0134
S1133AC02F5F3F4F8F8198850E949A1F811102C0FA
S1133AD090E069C149815A816B817C81D8015896F3
S1133AE0ED91FC9159978789803129F488EF9FEFF4
S1133AF0A0E0B0E004C088EF9FEFAFEFBFE048174D
S1133B0059076A077B0730F0C8010E945B148111D2
S1133B10F1C0EAC0F8014383548365837683EAC025
S1133B20C1018A199B0976018C159D0508F47C0155
S1133B30D80113964D905D906D907C901697B2E0ED
S1133B404B1A510861087108EF81F885058404C097
S1133B50440C551C661C771C0A94D2F786859785FD
S1133B60A089B189480E591E6A1E7B1E420E511C43
S1133B70611C711CE114F2E0FF0639F58091040325
S1133B8090910503A0910603B09107038415950550
S1133B90A605B70559F48FEF9FEFDC01809304036A
S1133BA090930503A0930603B09307039401B30114
S1133BB0A20180913107909132070E940714882353
S1133BC009F492C09EEF991A4DC0A114B10429F5CD
S1133BD0D80117964D915D916D917C911A975096ED
S1133BE08D919D910D90BC91A02D481759076A079E
S1133BF07B0798F00E94F71E882309F475C0409251
S1133C0004035092050360920603709207038091A7
S1133C10300781608093300708C041E0C301B201DE
S1133C200E94361F882309F45FC0B5016D5C784F8C
S1133C309B012E0D3F1D62177307A1F0D401FB01F8
S1133C40C9014D914193E817F907D9F75B01BFEF1B
S1133C50AB1ABB0A81E090E08A199B09280F391F2F
S1133C60820E931ECE18DF08F80187819085A18506
S1133C70B2858E0D9F1DA11DB11D87839087A187DD
S1133C80B287C114D10409F0D7CEF8018781908599
S1133C90A185B2854089518962897389481759077A
S1133CA06A077B0740F4808B918BA28BB38B818155
S1133CB0806881830DC080912A0790912B07892BFE
S1133CC039F02D813E81232B19F081818068818315
S1133CD0F801818183FF05C0C8010E94BD188823B3
S1133CE019F08D819E815FC081E0D8018C938FEFA4
S1133CF09FEF59C07601B1E0CB16B2E0DB0608F0C5
S1133D007101D8015896ED91FC91599713964D90F5
S1133D105D906D907C901697B2E04B1A5108610843
S1133D207108058404C0440C551C661C771C0A9455
S1133D30D2F786859785A089B189480E591E6A1ED7
S1133D407B1EE114E2E0FE0609F042CF17CFC10169
S1133D508A199B0976018C159D0508F47C01D8010C
S1133D6013964D905D906D907C901697B2E04B1A2F
S1133D70510861087108EF81F885058404C0440C7A
S1133D80551C661C771C0A94D2F786859785A089F2
S1133D90B189480E591E6A1E7B1EE114F2E0FF062B
S1133DA009F03BCFEBCE28960FB6F894DEBF0FBEDA
S1133DB0CDBFDF91CF911F910F91FF90EF90DF90D6
S1133DC0CF90BF90AF909F908F907F906F905F90B7
S1133DD04F903F902F900895FB0101900020E9F748
S1133DE03197AF01461B570B0E94CF1C0895809159
S1133DF030078823A9F14091040350910503609191
S1133E0006037091070323E337E080913107909113
S1133E1032070E940714882329F140912C075091FE
S1133E202D0760912E0770912F07411551056105EB
S1133E30710591F023E337E08091310790913207C7
S1133E400E940714882381F010922C0710922D07EA
S1133E5010922E0710922F071092300781E00895D8
S1133E6081E0089580E0089580E00895CF92DF9284
S1133E70EF92FF92CF936B017C01C42F80910403D6
S1133E8090910503A0910603B09107038C159D053D
S1133E90AE05BF05C1F00E94F71E8823D9F023E3C5
S1133EA037E0B701A60180913107909132070E9453
S1133EB0C213882389F0C0920403D0920503E092D0
S1133EC00603F092070380913007C82BC093300794
S1133ED081E003C080E001C080E0CF91FF90EF90CB
S1133EE0DF90CF900895CF92DF92EF92FF926B0113
S1133EF07C010E94F71E8823B9F0E3E3F7E083E333
S1133F0099E01192E817F907E1F7C0920403D092FF
S1133F100503E0920603F092070380913007816065
S1133F208093300781E001C080E0FF90EF90DF9044
S1133F30CF9008958F929F92AF92BF92CF92DF92CB
S1133F40EF92FF920F931F93CF93DF93EC016A01DB
S1133F507B01890189859A85AB85BC850196A11D64
S1133F60B11D84179507A607B70708F45EC08B89AF
S1133F709C89AD89BE892F89203129F4452F562F7C
S1133F80672F772708C0689416F876956795579534
S1133F9047951694D1F74A015B01880E991EAA1E13
S1133FA0BB1EC501B4018090040390900503A0904A
S1133FB00603B0900703681579058A059B0529F067
S1133FC040E00E94361F882391F18F898031A1F44B
S1133FD0DD24EE24FF24C601880F991FFC01ED5C4B
S1133FE0F84F80819181A0E0B0E0F8018083918353
S1133FF0A283B38381E01CC0E894C7F8DD24EE24D7
S1134000FF24C601880F991F880F991FFC01ED5CDE
S1134010F84F80819181A281B381BF70F8018083C0
S11340209183A283B38381E003C080E001C080E078
S1134030DF91CF911F910F91FF90EF90DF90CF9080
S1134040BF90AF909F908F9008952F923F924F9280
S11340505F926F927F928F929F92AF92BF92CF9214
S1134060DF92EF92FF920F931F93CF93DF9300D0D1
S113407000D000D0CDB7DEB78C0149835A836B835F
S11340807C833E832D83C12CD12C7601412C512C71
S11340903201689451F80F2EF8EF2F2EF02D3324AF
S11340A03A9488248A940F2EFFE09F2EF02DA12CA1
S11340B0B12C49815A816B817C819E012F5F3F4FD6
S11340C0C8010E949A1F882361F1D301C201F8013B
S11340D0058404C0880F991FAA1FBB1F0A94D2F736
S11340E0C80ED91EEA1EFB1E49815A816B817C8150
S11340F08789803129F488EF9FEFAA2DBB2D04C056
S1134100822D932DA82DB92D481759076A077B07CF
S113411080F2ED81FE81C082D182E282F38281E06D
S113412001C080E026960FB6F894DEBF0FBECDBF67
S1134130DF91CF911F910F91FF90EF90DF90CF907F
S1134140BF90AF909F908F907F906F905F904F90B3
S11341503F902F9008954F925F926F927F928F922B
S11341609F92AF92BF92CF92DF92EF92FF920F9302
S11341701F93CF93DF93EC016A017B01480159013E
S1134180423051056105710508F476C049855A85A8
S11341906B857C854F5F5F4F6F4F7F4F4C155D057F
S11341A06E057F0508F46AC04B895C896D897E8938
S11341B08F89803129F44D2C5E2C6F2C77240AC012
S11341C026013701689416F87694679457944794B7
S11341D01694D1F7440E551E661E771E40910403B3
S11341E05091050360910603709107034416550628
S11341F06606770639F040E0C301B2010E94361F1B
S11342008823F1F18F89803161F4DD24EE24FF24C9
S1134210C601880F991FFC01ED5CF84F91828082E2
S113422011C0E894C7F8DD24EE24FF24C601880FEA
S1134230991F880F991FFC01ED5CF84F80829182D1
S1134240A282B382809130078160809330078A898B
S11342508230C0F08D819E81AF81B885480E591E91
S11342606A1E7B1E40922C0750922D0760922E07E7
S113427070922F0781E007C080E005C080E003C092
S113428080E001C081E0DF91CF911F910F91FF90F9
S1134290EF90DF90CF90BF90AF909F908F907F90E2
S11342A06F905F904F9008952F923F924F925F923C
S11342B06F927F928F929F92AF92BF92CF92DF9232
S11342C0EF92FF920F931F93CF93DF93CDB7DEB797
S11342D02F970FB6F894DEBF0FBECDBF1C014987E0
S11342E05A876B877C873E872D87F901808191816E
S11342F0A281B3810097A105B10549F02C013D01CC
S1134300FFEF4F1A5F0A6F0A7F0A1F8611C0D1019F
S11343104D905D906D907C90B1E0BF8729853A8582
S11343204B855C85213031054105510509F01F8617
S1134330F10181859285A385B4859C01AD012F5F30
S11343403F4F4F4F5F4F2D833E834F835887892BB9
S11343508A2B8B2B09F459C073016201812C912C97
S1134360540112E000E08D819E81AF81B8858C15E7
S11343709D05AE05BF0540F4C12ED02EE12CF12CD5
S1134380412E502E612C712C9E012F5F3F4FB7019F
S1134390A601C1010E949A1F8823B9F189819A81DB
S11343A0AB81BC81892B8A2B8B2B41F026013701F1
S11343B09FEF491A590A690A790A12C0D701C6013E
S11343C00196A11DB11D84199509A609B70929856E
S11343D03A854B855C8582179307A407B507B9F026
S11343E03FEF831A930AA30AB30A4FEFC41AD40AFD
S11343F0E40AF40AF10181859285A385B4858816BF
S11344009906AA06BB0608F4AECF80E057C00FEFAA
S11344101FEF2FEF3FE0B701A601C1010E94AB20BF
S1134420811112C04BC09701860148015901F1E086
S11344308F1A9108A108B108B501A401C1010E9415
S1134440AB20811107C035C04C145D046E047F0499
S113445050F308C0481459046A047B0418F4950105
S11344608401E3CFAD85BE854D915D916D917C91C5
S1134470411551056105710539F093018201C101AE
S11344800E94AB208823B9F0ED85FE8540825182DD
S113449062827382FF85FF2381F0D301C2010196FA
S11344A0A11DB11DF10180839183A283B38381E0B7
S11344B005C080E003C080E001C081E02F960FB604
S11344C0F894DEBF0FBECDBFDF91CF911F910F9146
S11344D0FF90EF90DF90CF90BF90AF909F908F9020
S11344E07F906F905F904F903F902F9008952F9200
S11344F03F924F925F926F927F928F929F92AF9270
S1134500BF92CF92DF92EF92FF920F931F93CF93BC
S1134510DF9300D000D0CDB7DEB75C016A017B0128
S113452082E090E0A0E0B0E0F50180839183A28373
S1134530B3830F2EF8EF6F2EF02D77247A9488240E
S11345408A940F2EFFE09F2EF02D0F2EF8EF2F2EC2
S1134550F02D33243A94412C512C9E012F5F3F4F70
S1134560B701A601C5010E949A1F882309F100E042
S113457010E09801B701A601C5010E94AB20882371
S1134580B9F0C980DA80EB80FC80F501878980313D
S113459029F4822D932DA42DB52D04C0862D972D9D
S11345A0A82DB92DC816D906EA06FB06B0F202C03A
S11345B080E001C081E00F900F900F900F90DF9189
S11345C0CF911F910F91FF90EF90DF90CF90BF900C
S11345D0AF909F908F907F906F905F904F903F909F
S11345E02F9008958F929F92AF92BF92CF92DF92B5
S11345F0EF92FF920F931F93CF93DF93EC01142F4D
S11346007093320760933107442351F1453008F029
S1134610FBC040E060E070E0CB010E94361F8823BD
S113462009F4F4C020E1129FF0011124EF51F74F77
S113463080818F7709F0ECC084859585A685B78540
S113464084369105A105B10508F4E4C0C084D18481
S1134650E284F384C114D104E104F10421F4DCC044
S1134660C12CD12C760140E0C701B6010E94361F4F
S1134670882309F4D3C080913E0790913F078115A8
S1134680924009F0CDC020914307222309F4CAC007
S11346908091410790914207892B09F4C5C040914C
S11346A04007442309F4C2C02A8B4C831D8650E082
S11346B021E030E006C081E0860F8D87683008F085
S11346C0B7C06D85E62FC901062E02C0880F991F59
S11346D00A94E2F74817590771F720914907309176
S11346E04A072115310519F040E050E008C0209137
S11346F05707309158074091590750915A072D8315
S11347003E834F8358878091410790914207460129
S11347105701880E991EA11CB11C8B8A9C8AAD8AF4
S1134720BE8A0091440710914507198F088FA09104
S11347304307B0E00E948E5E860E971EA81EB91E27
S11347408A8E9B8EAC8EBD8E000F111F0295129522
S1134750107F1027007F102701501E4FC801892F9A
S113476099278695880E991EA11CB11C8E869F865A
S1134770A88AB98A8091460790914707009719F053
S1134780A0E0B0E008C08091530790915407A09135
S11347905507B0915607C818D908EA08FB08C80E8F
S11347A0D91EEA1EFB1E04C0F694E794D794C7945E
S11347B0EA95D2F7C986DA86EB86FC8685EFC816B9
S11347C08FE0D806E104F10420F48CE08F8B81E0C3
S11347D030C025EFC2162FEFD206E104F10420F415
S11347E080E18F8B81E025C080915F079091600705
S11347F0A0916107B09162078A8F9B8FAC8FBD8FA8
S113480080E28F8B81E015C080E013C080E011C08E
S113481080E00FC080E00DC080E00BC080E009C0E4
S113482080E007C080E005C080E003C080E001C0F4
S113483080E0DF91CF911F910F91FF90EF90DF9077
S1134840CF90BF90AF909F908F9008952F923F92FA
S11348504F925F926F927F928F929F92AF92BF928C
S1134860CF92DF92EF92FF920F931F93CF93DF9338
S1134870CDB7DEB72E970FB6F894DEBF0FBECDBF0F
S11348809E878D878B011A016837710508F4CBC0A8
S113489080E090E00E94EB5A69877A878B879C8737
S11348A038E72316310408F4CDC0B10180E090E06C
S11348B00E94EB5A6D837E838F839887AD85BE8576
S11348C0D4966D917D918D919C91D7970E94ED5ACC
S11348D06B017C01ED85FE85A6A0B7A020E030E049
S11348E0A9010E944B5A882309F4BAC0B50180E09B
S11348F090E00E94EB5A9B01AC010E943F5D2B01AA
S11349003C01A7019601C701B6010E94725969834F
S11349107A838B839C8329853A854B855C85CA0180
S1134920B9010E943F5D9B01AC01C301B2010E9429
S1134930715929813A814B815C810E94525A0E94AB
S1134940385A0E94BA5A4B015C012D813E814F8135
S11349505885CA01B9010E943F5D9B01AC01C301A6
S1134960B2010E94715929813A814B815C810E9474
S1134970525A0E94285B0E94BA5AAD85BE8554964D
S11349804D905D906D907C905797A30192012819EA
S113499039094A095B09261B370B480B590B298334
S11349A03A834B835C8357FD62C0F89495962C91AF
S11349B0959720FD53C0FD01808E918EA28EB38EFB
S11349C089819A81AB81BC81880D991DAA1DBB1D6B
S11349D0848F958FA68FB78F11A700A733A622A621
S11349E081E07894AD85BE8595969C9195979D7F41
S11349F095969C932E960FB6F894DEBF0FBECDBF4E
S1134A00DF91CF911F910F91FF90EF90DF90CF90A6
S1134A10BF90AF909F908F907F906F905F904F90DA
S1134A203F902F90089520E030E040EF52E4298732
S1134A303A874B875C8708E710E038E72316310490
S1134A4008F033CF80E090E0A0EFB2E48D839E8342
S1134A50AF83B88788E7282E312C30CF80E0C1CFD0
S1134A6060E070E0CB01812C912C540186CFD89664
S1134A708D909D90AD90BC90DB9720E030E0A90133
S1134A80C701B6010E944B5A811113C060E070E067
S1134A90CB014B015C01461657066806790614F4EF
S1134AA05301420119821A821B821C82AD85BE8584
S1134AB07CCF29853A854B855C85CA01B9010E9462
S1134AC03F5D9B01AC01C501B4010E9471594B01CA
S1134AD05C012D813E814F815885CA01B9010E9434
S1134AE03F5D9B01AC01C501B4010E9472594B01A9
S1134AF05C0120E030E040E850E4C701B6010E94C8
S1134B003F5D9B01AC01C501B4010E94525A0E9451
S1134B10385A0E94BA5A97FFBCCFB8CFCB010E9433
S1134B20F20708950E94350808950E943F080895E9
S1134B30AB0160E070E02AE00E94160C089522E0C8
S1134B400E94D70C08958DE00E9414088AE00E9408
S1134B50140808950E947D0D8DE00E9414088AE0D7
S1134B600E9414080895862F0E9414088DE00E9464
S1134B7014088AE00E9414080895AB01662757FDC3
S1134B806095762F0E94AC0C8DE00E9414088AE098
S1134B900E94140808950E94AC0C8DE00E94140831
S1134BA08AE00E94140808952AE00E94160C8DE001
S1134BB00E9414088AE00E94140808950E94700D4F
S1134BC08DE00E9414088AE00E941408089522E0EF
S1134BD00E94D70C8DE00E9414088AE00E941408F9
S1134BE008950E94920D8DE00E9414088AE00E94AC
S1134BF014080895FC0184810895FC0182850895B8
S1134C00FC0167817085818592850895FC01608926
S1134C10718982899389089521E0FC01828181113F
S1134C2001C020E0822F0895CF93DF931F92CDB768
S1134C30DEB741E050E0BE016F5F7F4F0E94541623
S1134C40019719F4898190E002C08FEF9FEF0F90D4
S1134C50DF91CF9108950E94601A08950E94AC1CC0
S1134C6008950F931F93CF93DF93EC018B0141E0E1
S1134C700E94F222811106C040E0B801CE010E94D8
S1134C80F22201C081E0DF91CF911F910F9108952D
S1134C90FC0184810895FC01618572858385948576
S1134CA00895FC0187890895CF92DF92EF92FF92D5
S1134CB063ED75E086E796E00E94920D85EE9DE037
S1134CC00E94FD25823009F460C0833009F456C087
S1134CD0813009F44CC066EB75E086E796E00E94EB
S1134CE0920D62EA75E086E796E00E94920D87ECE9
S1134CF09DE00E945126482F50E060E070E02AE0D9
S1134D0030E086E796E00E94DE2587EC9DE00E9475
S1134D104826C82ED12CE12CF12C87EC9DE00E9472
S1134D204B269B01AC0199E0220F331F441F551FF2
S1134D309A95D1F7C701B6010E94055E6B017C010B
S1134D406BE875E086E796E00E94920DB701A60134
S1134D5024E176956795579547952A95D1F786E787
S1134D6096E0FF90EF90DF90CF900C94D4256DECFB
S1134D7075E086E796E00E94920DB3CF60EC75E093
S1134D8086E796E00E94920DACCF67EC75E086E76B
S1134D9096E00E94920DA5CFCF931092550D0E9AD6
S1134DA016988DEA9DE00E940C26811159C060E09E
S1134DB085EE9DE00E944612882309F448C065EE02
S1134DC07DE087EC9DE00E9431268823C9F167ECE1
S1134DD07DE08DEA9DE00E944315882309F445C0D7
S1134DE0C1E0C093550D0E94542683E99DE00E94C2
S1134DF0051989E79DE00E94051921E04EEB53E077
S1134E006DEA7DE083E99DE00E94601A8823B1F099
S1134E101092570D1092580D1092590D10925A0D70
S1134E2083E99DE00E94062660935B0D70935C0D00
S1134E3080935D0D90935E0DC093560DCF910895B0
S1134E4063EF75E086E796E0CF910C94920D68E0ED
S1134E5076E086E796E00E94920DCF910C94530879
S1134E608DEA9DE00E940519A2CF60EE75E086E709
S1134E7096E0CF910C94920DCF93DF9300D0CDB7F1
S1134E80DEB72091D5103091D610CE012115310511
S1134E9041F00196821B930B0F900F90DF91CF91FD
S1134EA008958A5D90410F900F90DF91CF910895FE
S1134EB081E0089580930C030895CF92DF92EF92DE
S1134EC0FF920F931F93CF93DF93C091D0100E9452
S1134ED08F080091F80D1091F90D2091FA0D309181
S1134EE0FB0DDC01CB01801B910BA20BB30B8938AA
S1134EF09341A105B105B0F00E948F086093F80DAD
S1134F007093F90D8093FA0D9093FB0D8DE0C89F7B
S1134F10F0011124E057F94F868197819093F70DA2
S1134F208093F60D8091F40D9091F50D0197F9F4AD
S1134F300E948F080091F00D1091F10D2091F20D57
S1134F403091F30DDC01CB01801B910BA20BB30B51
S1134F50813E9E42A105B10550F01092FF0D1092C2
S1134F60FE0D81E090E09093FD0D8093FC0D409147
S1134F70FE0D5091FF0D4130510509F06BC00C2F0F
S1134F8010E08DE0C89FF0011124E057F94F26810D
S1134F9037818091F60D9091F70D281739070CF0A1
S1134FA059C08DE0809FF001819FF00D1124E057DE
S1134FB0F94F84858F3F09F04DC00E948F086B0123
S1134FC07C018DE0809FE001819FD00D1124CA56A1
S1134FD0D94F0FC06CEF7DE08EEF9DE00E949D0FD6
S1134FE0288139818091F60D9091F70D82179307EE
S1134FF06CF00E948F08DC01CB018C199D09AE096D
S1135000BF0980319742A105B10520F38091FE0DBF
S11350109091FF0D019709F063C08DE0809FF0012E
S1135020819FF00D1124E057F94F2681378180913B
S1135030F60D9091F70D281739070CF051C0109216
S1135040FF0D1092FE0D81E090E09093FD0D809392
S1135050FC0D46C06C2F70E08DE0C89FE001112468
S1135060C057D94F2E813F818091F60D9091F70D55
S11350702817390729F58091F40D9091F50D892BA6
S113508079F54130510561F58DE0869FF001879FE8
S1135090F00D1124E057F94F84858F3F09F581E025
S11350A090E09093F50D8093F40D0E948F08609327
S11350B0F00D7093F10D8093F20D9093F30D10C0E9
S11350C0821793076CF48091F40D9091F50D01977C
S11350D039F44130510521F41092F50D1092F40D7C
S11350E06CEF7DE08EEF9DE00E949D0FDF91CF91EC
S11350F01F910F91FF90EF90DF90CF9008950E9441
S11351008F086093000E7093010E8093020E9093AB
S1135110030EE0910C0EF0E0E35FF14F808181110A
S11351200CC062EE71E086E796E00E94920D8DE07D
S11351300E9414088AE00E94140808950E944E08F0
S113514065EE71E086E796E00E94920D4091611051
S11351505091621060916310709164104F5F5F4FC3
S11351606F4F7F4F86E796E00E94AC0C8DE00E9463
S113517014088AE00E9414080E947F280895BF92B0
S1135180CF92DF92EF92FF920F931F93CF93DF930F
S113519010E601E086E796E00E949225882349F113
S11351A080910A0E863028F586E796E00E949525C0
S11351B08093090E8A3009F49DC08D3009F49AC099
S11351C08A3309F4A2C1E091070EF091080EEF357D
S11351D0F1050CF096C08111A6C11092060E109232
S11351E0080E1092070E86E796E00E949225811120
S11351F0D7CF8091560D882309F472C08091070E91
S11352009091080E892B09F06BC0D0E6C1E0409163
S11352105B0D50915C0D60915D0D70915E0D809100
S1135220570D9091580DA091590DB0915A0D8417B6
S11352309507A607B70708F053C080910A0E863079
S113524008F04EC083E99DE00E9414268093090E65
S11352509C0133273093530D2093520D8A3009F467
S113526095C18D3009F492C18A3309F483C1209128
S1135270070E3091080E2F3531050CF087C18B33A2
S113528009F4EBC14091060E4111C1CF90910B0E70
S1135290A9014F5F5F4F5093080E4093070EF90129
S11352A0D99FE00DF11D1124ED5EF14F8083AFCF46
S11352B067E372E086E796E00E94920D40916110E8
S11352C050916210609163107091641086E796E0CB
S11352D00E94CB250E949E281092080E1092070E61
S11352E0DF91CF911F910F91FF90EF90DF90CF90BE
S11352F0BF900895E091070EF091080E309709F4DD
S113530033C1B0900B0EEB2CF12C1E9D60011F9D40
S1135310D00C1124EC0DFD1DED5EF14F1082F70150
S1135320E35FF14F1082E601CD5ED14F6EE470E091
S1135330CE010E948B61009709F4CDC09093050EB5
S11353408093040E8C1B9D0B8C0D9D1D4AE050E038
S113535060E070E08C5E914F0E942A60609365105B
S1135360709366108093671090936810C0906110DA
S1135370D0906210E0906310F09064102FEFC21A86
S1135380D20AE20AF20A6C157D058E059F0509F41E
S1135390AFC0C0900B0ED12C1C9D70011D9DF00C54
S11353A01124C7018D5E914F7C0167EC73E00E946C
S11353B09661892B09F437C16AE270E0C7010E9443
S11353C08B61009709F474CF1C9D90011D9D300DD5
S11353D01124F901ED5EF14F40814A3209F4C1C054
S11353E050E0C0E05F5FC427F901E50FF11DED5EF9
S11353F0F14F40814A32B1F7D0E09093050E80938B
S1135400040E1C9D90011D9D300D11248E199F09C1
S1135410280F391F60E070E0C9018C5E914F0E9433
S1135420B95E0E94BA5AC617D70709F0F9C080912D
S1135430651090916610A0916710B09168108093E8
S1135440611090936210A0936310B0936410D09095
S11354500B0EED2CF12C1E9DE0011F9DD00D11248F
S1135460CD5ED14F67E470E0CE010E948B6100975E
S113547001F19093050E8093040E1E9D90011F9DD3
S1135480300D11248C1B9D0B280F391F60E070E038
S1135490C9018C5E914F0E94B95E0E94BA5A643071
S11354A0710528F48091540D882309F453C0D090D9
S11354B00B0E81E08D0D8630C1F080930B0E809130
S11354C00A0E8F5F80930A0E1092060E1092080E39
S11354D01092070E5FCE6AE270E0CE010E948B61EB
S11354E0892B09F0A3C0DB2CBDCF10920B0EE7CFA4
S11354F0C0900B0ED12C1C9D70011D9DF00C11242D
S1135500C7018D5E914F7C0157CF8091060E882391
S113551009F4F0CEE091070EF091080EEF35F10595
S11355200CF0EFCE37CE8B3311F19091060E911122
S113553031CE90910B0E9F012F5F3F4F3093080E99
S11355402093070E199FE00DF11D1124ED5EF14F1C
S1135550808320CE62E072E086E796E00E94920D9E
S1135560A6CFC0E0D0E049CF1092060EB9CE00938A
S1135570060E10CE8091060E882341F08091070E0E
S11355809091080E8F3591050CF441CE83E99DE08E
S11355900E9400266093570D7093580D8093590D07
S11355A090935A0D00915B0D10915C0D20915D0D4F
S11355B030915E0D601771078207930728F5A0915B
S11355C0070EB091080E109779F280910B0EE82F18
S11355D0F0E0D89FA00DB11D1124AD5EB14F1C9217
S11355E0E35FF14FC08390910A0E9F5F90930A0E80
S11355F08F5F863091F080930B0E1092060E1092FE
S1135600080E1092070E03CE1092560D6DEE71E047
S113561086E796E00E94920DD2CF10920B0EEDCF4A
S113562067E672E047CE6CE872E044CE67E072E071
S113563086E796E00E94920D4091611050916210AD
S1135640609163107091641086E796E00E94CB2508
S11356501092080E1092070E43CEC093060ED7CDBB
S113566080910A0E853010F40E94BF280895AF92ED
S1135670BF92CF92DF92EF92FF920F931F93CF933B
S1135680DF93D82F20915710309158104091591022
S113569050915A106091531070915410809155108C
S11356A0909156100E947A5CC62F172F082FF92E5E
S11356B02091991030919A1040919B1050919C1018
S11356C06091A9107091AA108091AB109091AC10C8
S11356D00E946D5C18165CF4A0911303B09114033E
S11356E020910E0330910F030E94705E08C0A091B8
S11356F00E03B0910F0324E630E00E94875E0E94FF
S1135700ED5A20E030E84BEB55E40E94525A5B011D
S11357106C01DF93FF920F931F93CF936894EE2451
S1135720E1F801E020E043E550E16DE970E18DE846
S113573090E10E94CB0880919D1090919E10A091C1
S11357409F10B091A01080938D1090938E10A09311
S11357508F10B09390108091A1109091A210A091FD
S1135760A310B091A4108093911090939210A093E1
S11357709310B09394108091A5109091A610A091CD
S1135780A710B091A8108093951090939610A093B1
S11357909710B09398108091A9109091AA10A0919D
S11357A0AB10B091AC108093991090939A10A09381
S11357B09B10B0939C100F900F900F900F900F9030
S11357C0DF91CF911F910F91FF90EF90DF90CF90D9
S11357D0BF90AF9008950F931F930E948F0800917C
S11357E04A0D10914B0D20914C0D30914D0DDC0163
S11357F0CB01801B910BA20BB30B843C9940A105F8
S1135800B105D0F10E948F0860934A0D70934B0D3F
S113581080934C0D90934D0D86B1806E8F3F51F067
S11358200E948F0860934E0D70934F0D8093500D1E
S11358309093510D0E948F0800914E0D10914F0DC1
S11358402091500D3091510DAB01BC01401B510B07
S1135850620B730B40365A4E6105710520F4012B1F
S1135860022B032B29F480E090E080938A0004C08B
S11358708FEF90E080938A001F910F9108950F930A
S11358801F938091240790912507A0912607B0913A
S11358902707892B8A2B8B2B09F039C0809120078D
S11358A090912107A0912207B0912307892B8A2B7D
S11358B08B2B09F05FC0F894E0918609F091870979
S11358C07894809188099091890920E0E817F90774
S11358D0D1F034A1232B0190F081E02D8E179F0786
S11358E0C1F7922F9072822F807424FF0EC0911101
S11358F001C05E9A811101C05F9A27FD01C0459ADB
S11359001F910F91089580E090E05D9AF0CF0E947E
S11359108F080091000E1091010E2091020E30911B
S1135920030E601B710B820B930B009124071091E3
S11359302507209126073091270706171707280700
S1135940390708F0ABCF109293061092920680E0CC
S113595090E080939A0010928406109283068093BC
S1135960980088B18F6188B9809172008D7F80938F
S1135970720094CF0E948F080091000E1091010EC6
S11359802091020E3091030E601B710B820B930B5E
S113599000912007109121072091220730912307BD
S11359A0061717072807390708F085CF88B18F61D4
S11359B088B9809172008D7F809372007CCF2F9282
S11359C03F924F925F926F927F928F929F92AF928B
S11359D0BF92CF92DF92EF92FF920F931F93CF93D8
S11359E0DF9300D000D000D0CDB7DEB78091850919
S11359F0833008F4D0C0F894009186091091870987
S1135A0078942090880930908909F1010280F3810B
S1135A10E02DFE83ED83A2A4B3A4B50180E090E061
S1135A200E94EB5A6B017C018D819E810817190736
S1135A3069F406C1C4A6D5A6E6A6F7A68281938119
S1135A409E838D830817190709F4F4C0A7019601F2
S1135A50C701B6010E943F5DED81FE8120AD31ADED
S1135A6042AD53AD0E9472590E94AC5D0E94385AF7
S1135A700E94BF5A0E94EB5A9B01AC01ED81FE814A
S1135A8060A971A982A993A90E943B5B6B017C0167
S1135A909B01AC01ED81FE8164A575A586A597A542
S1135AA00E944B5AED81FE818111C4CFE2A4F3A47C
S1135AB060A571A580E090E00E94EB5A4B015C0167
S1135AC0ED81FE811AC0ED81FE8185A1FFEFF0FB1F
S1135AD081F9ED81FE8185A381FD76C0F80185A160
S1135AE0FFEFF0FB81F9F80185A342015301F801AE
S1135AF0E2A4F3A41E830D83F80100811181201612
S1135B00310609F473C09401A501B401C5010E94D2
S1135B103F5DED81FE8120AD31AD42AD53AD0E94BC
S1135B2072590E94AC5D0E94385A0E94BF5A0E946A
S1135B30EB5A9B01AC01ED81FE8166A177A180E067
S1135B4090E029833A834B835C830E94EB5A29813A
S1135B503A814B815C810E943B5BF80124A535A509
S1135B6046A557A50E943B5B2B013C01B70180E091
S1135B7090E00E94EB5A9201A3010E944B5A8111BA
S1135B80A2CFF80160A571A580E090E00E94EB5AD5
S1135B904B015C01ACCF26960FB6F894DEBF0FBE66
S1135BA0CDBFDF91CF911F910F91FF90EF90DF90C8
S1135BB0CF90BF90AF909F908F907F906F905F90A9
S1135BC04F903F902F900895B201C3010E94BF5A95
S1135BD06B017C01B401C5010E94BF5AA6018D81ED
S1135BE09E810E942624882361F278CF85A181FFBB
S1135BF0D2CFB401C5010E94BF5AA7018D819E81F5
S1135C0026960FB6F894DEBF0FBECDBFDF91CF91BD
S1135C101F910F91FF90EF90DF90CF90BF90AF90C6
S1135C209F908F907F906F905F904F903F902F90B8
S1135C300C942624FC01E2A4F3A4ED81FE8138CF68
S1135C407501ED81FE8134CFCF93DF93EAE8F9E06B
S1135C50A6ECB9E0B183A083F093C909E093C80925
S1135C60C2E0DAE01196DC93CE93B093050AA093D8
S1135C70040AAEE3BAE0B983A883D093410AC0937F
S1135C80400ACAE7DAE01196DC93CE93B0937D0A1A
S1135C90A0937C0AA6EBBAE0B983A883D093B90A8F
S1135CA0C093B80AC2EFDAE01196DC93CE93B093B6
S1135CB0F50AA093F40AAEE2BBE0B983A883D093BB
S1135CC0310BC093300BCAE6DBE01196DC93CE9324
S1135CD0B0936D0BA0936C0BA6EABBE0B983A883C9
S1135CE0D093A90BC093A80BC2EEDBE01196DC9312
